{
  "address": "0x399cFce1F3f5AB74C46d9F0361BE18f87c23FCC3",
  "abi": [
    {
      "inputs": [
        {
          "internalType": "address",
          "name": "_weth",
          "type": "address"
        },
        {
          "internalType": "address[]",
          "name": "_inTokens",
          "type": "address[]"
        },
        {
          "internalType": "address[]",
          "name": "_outTokens",
          "type": "address[]"
        },
        {
          "internalType": "address[]",
          "name": "_oracles",
          "type": "address[]"
        },
        {
          "internalType": "address[]",
          "name": "_stablecoins",
          "type": "address[]"
        },
        {
          "internalType": "uint256[]",
          "name": "_decimals",
          "type": "uint256[]"
        }
      ],
      "stateMutability": "nonpayable",
      "type": "constructor"
    },
    {
      "anonymous": false,
      "inputs": [
        {
          "indexed": true,
          "internalType": "address",
          "name": "previousOwner",
          "type": "address"
        },
        {
          "indexed": true,
          "internalType": "address",
          "name": "newOwner",
          "type": "address"
        }
      ],
      "name": "OwnershipTransferred",
      "type": "event"
    },
    {
      "inputs": [],
      "name": "WETH",
      "outputs": [
        {
          "internalType": "address",
          "name": "",
          "type": "address"
        }
      ],
      "stateMutability": "view",
      "type": "function"
    },
    {
      "inputs": [
        {
          "internalType": "address[]",
          "name": "_stablecoins",
          "type": "address[]"
        },
        {
          "internalType": "uint256[]",
          "name": "_decimals",
          "type": "uint256[]"
        }
      ],
      "name": "addStablecoins",
      "outputs": [],
      "stateMutability": "nonpayable",
      "type": "function"
    },
    {
      "inputs": [
        {
          "internalType": "address[]",
          "name": "_inTokens",
          "type": "address[]"
        },
        {
          "internalType": "address[]",
          "name": "_outTokens",
          "type": "address[]"
        },
        {
          "internalType": "address[]",
          "name": "_oracles",
          "type": "address[]"
        }
      ],
      "name": "addTokens",
      "outputs": [],
      "stateMutability": "nonpayable",
      "type": "function"
    },
    {
      "inputs": [
        {
          "internalType": "uint256",
          "name": "amountIn",
          "type": "uint256"
        },
        {
          "internalType": "address",
          "name": "inToken",
          "type": "address"
        },
        {
          "internalType": "address",
          "name": "outToken",
          "type": "address"
        }
      ],
      "name": "getExpectedReturnAmount",
      "outputs": [
        {
          "internalType": "uint256",
          "name": "returnAmount",
          "type": "uint256"
        },
        {
          "internalType": "uint256",
          "name": "outTokenDecimals",
          "type": "uint256"
        }
      ],
      "stateMutability": "view",
      "type": "function"
    },
    {
      "inputs": [],
      "name": "isOwner",
      "outputs": [
        {
          "internalType": "bool",
          "name": "",
          "type": "bool"
        }
      ],
      "stateMutability": "view",
      "type": "function"
    },
    {
      "inputs": [],
      "name": "owner",
      "outputs": [
        {
          "internalType": "address",
          "name": "",
          "type": "address"
        }
      ],
      "stateMutability": "view",
      "type": "function"
    },
    {
      "inputs": [],
      "name": "renounceOwnership",
      "outputs": [],
      "stateMutability": "nonpayable",
      "type": "function"
    },
    {
      "inputs": [
        {
          "internalType": "address",
          "name": "newOwner",
          "type": "address"
        }
      ],
      "name": "transferOwnership",
      "outputs": [],
      "stateMutability": "nonpayable",
      "type": "function"
    }
  ],
  "transactionHash": "0xe48ac0d07516b79aedee73bdceb0c6c4b16703ab6bf96ac3502414fb2ff6562b",
  "args": [
    "0xc778417E063141139Fce010982780140Aa0cD5Ab",
    [
      "0x7354C81fbCb229187480c4f497F945C6A312d5C3",
      "0xEeeeeEeeeEeEeeEeEeEeeEEEeeeeEeeeeeeeEEeE",
      "0xbF7A7169562078c96f0eC1A8aFD6aE50f12e5A99",
      "0x01BE23585060835E02B77ef475b0Cc51aA1e0709",
      "0x6e894660985207feb7cf89Faf048998c71E8EE89",
      "0xcBBb17D9767bD57FBF4Bbf8842E916bCb3826ec1",
      "0xddea378A6dDC8AfeC82C36E9b0078826bf9e68B6"
    ],
    [
      "0xEeeeeEeeeEeEeeEeEeEeeEEEeeeeEeeeeeeeEEeE",
      "0x7354C81fbCb229187480c4f497F945C6A312d5C3",
      "0x7354C81fbCb229187480c4f497F945C6A312d5C3",
      "0x7354C81fbCb229187480c4f497F945C6A312d5C3",
      "0x7354C81fbCb229187480c4f497F945C6A312d5C3",
      "0x7354C81fbCb229187480c4f497F945C6A312d5C3",
      "0x7354C81fbCb229187480c4f497F945C6A312d5C3"
    ],
    [
      "0xdCA36F27cbC4E38aE16C4E9f99D39b42337F6dcf",
      "0x8A753747A1Fa494EC906cE90E9f37563A8AF630e",
      "0x031dB56e01f82f20803059331DC6bEe9b17F7fC9",
      "0xd8bD0a1cB028a31AA859A21A3758685a95dE4623",
      "0x9331b55D9830EF609A2aBCfAc0FBCE050A52fdEa",
      "0xE96C4407597CD507002dF88ff6E0008AB41266Ee",
      "0xF7Bbe4D7d13d600127B6Aa132f1dCea301e9c8Fc"
    ],
    [
      "0x7354C81fbCb229187480c4f497F945C6A312d5C3",
      "0x4DBCdF9B62e891a7cec5A2568C3F4FAF9E8Abe2b",
      "0x5592EC0cfb4dbc12D3aB100b257153436a1f0FEa"
    ],
    [
      8,
      6,
      18
    ]
  ],
  "solcInputHash": "cd878bc428a5d60a0d1c1abbc2f8be42",
  "bytecode": "0x60a06040523480156200001157600080fd5b506040516200207d3803806200207d833981810160405260c08110156200003757600080fd5b8151602083018051604051929492938301929190846401000000008211156200005f57600080fd5b9083019060208201858111156200007557600080fd5b82518660208202830111640100000000821117156200009357600080fd5b82525081516020918201928201910280838360005b83811015620000c2578181015183820152602001620000a8565b5050505090500160405260200180516040519392919084640100000000821115620000ec57600080fd5b9083019060208201858111156200010257600080fd5b82518660208202830111640100000000821117156200012057600080fd5b82525081516020918201928201910280838360005b838110156200014f57818101518382015260200162000135565b50505050905001604052602001805160405193929190846401000000008211156200017957600080fd5b9083019060208201858111156200018f57600080fd5b8251866020820283011164010000000082111715620001ad57600080fd5b82525081516020918201928201910280838360005b83811015620001dc578181015183820152602001620001c2565b50505050905001604052602001805160405193929190846401000000008211156200020657600080fd5b9083019060208201858111156200021c57600080fd5b82518660208202830111640100000000821117156200023a57600080fd5b82525081516020918201928201910280838360005b83811015620002695781810151838201526020016200024f565b50505050905001604052602001805160405193929190846401000000008211156200029357600080fd5b908301906020820185811115620002a957600080fd5b8251866020820283011164010000000082111715620002c757600080fd5b82525081516020918201928201910280838360005b83811015620002f6578181015183820152602001620002dc565b50505050919091016040819052600080546001600160a01b03191633178082556001600160a01b0316955093507f8be0079c531659141344cd1fd0a4f28419497f9722a3daafe3b4186f6b6457e09250839150a36001600160601b0319606087901b16608052620003728585856001600160e01b036200047516565b6200038782826001600160e01b036200059b16565b737354c81fbcb229187480c4f497f945c6a312d5c36000527fde3e59ea0eeb6a65f16dd826b7bdfb53723c09ad80c81d458bbf2e138d9185236020527f71be31c8c9ea1990ff1b25e32cf5546b7f5958f3992ff0a4dbb969bf1facc864546001600160a01b0316620003f857600080fd5b73eeeeeeeeeeeeeeeeeeeeeeeeeeeeeeeeeeeeeeee6000527fd35485ff1dcb18f34e1a6cc1f7ccf16763a6d6285a9dc61fc9b9ec9862019d0b6020527f870144fd8380c69772f87ba99aa23849f47f359a7471f50a19407c3e1bd8ace2546001600160a01b03166200046957600080fd5b50505050505062000674565b620004886001600160e01b036200066316565b620004c9576040805162461bcd60e51b815260206004820181905260248201526000805160206200205d833981519152604482015290519081900360640190fd5b81518351148015620004dc575080518351145b620004e657600080fd5b60005b835181101562000595578181815181106200050057fe5b6020026020010151600160008684815181106200051957fe5b60200260200101516001600160a01b03166001600160a01b0316815260200190815260200160002060008584815181106200055057fe5b6020908102919091018101516001600160a01b0390811683529082019290925260400160002080546001600160a01b03191692909116919091179055600101620004e9565b50505050565b620005ae6001600160e01b036200066316565b620005ef576040805162461bcd60e51b815260206004820181905260248201526000805160206200205d833981519152604482015290519081900360640190fd5b8051825114620005fe57600080fd5b60005b82518110156200065e578181815181106200061857fe5b6020026020010151600260008584815181106200063157fe5b6020908102919091018101516001600160a01b031682528101919091526040016000205560010162000601565b505050565b6000546001600160a01b0316331490565b60805160601c6119c16200069c600039806106b052806106fc52806108af52506119c16000f3fe608060405234801561001057600080fd5b50600436106100885760003560e01c80638da5cb5b1161005b5780638da5cb5b146103ac5780638f32d59b146103d0578063ad5c4648146103ec578063f2fde38b146103f457610088565b80631ef033781461008d5780632711f37f146102345780633c772b6c14610357578063715018a6146103a4575b600080fd5b610232600480360360608110156100a357600080fd5b810190602081018135600160201b8111156100bd57600080fd5b8201836020820111156100cf57600080fd5b803590602001918460208302840111600160201b831117156100f057600080fd5b9190808060200260200160405190810160405280939291908181526020018383602002808284376000920191909152509295949360208101935035915050600160201b81111561013f57600080fd5b82018360208201111561015157600080fd5b803590602001918460208302840111600160201b8311171561017257600080fd5b9190808060200260200160405190810160405280939291908181526020018383602002808284376000920191909152509295949360208101935035915050600160201b8111156101c157600080fd5b8201836020820111156101d357600080fd5b803590602001918460208302840111600160201b831117156101f457600080fd5b91908080602002602001604051908101604052809392919081815260200183836020028082843760009201919091525092955061041a945050505050565b005b6102326004803603604081101561024a57600080fd5b810190602081018135600160201b81111561026457600080fd5b82018360208201111561027657600080fd5b803590602001918460208302840111600160201b8311171561029757600080fd5b9190808060200260200160405190810160405280939291908181526020018383602002808284376000920191909152509295949360208101935035915050600160201b8111156102e657600080fd5b8201836020820111156102f857600080fd5b803590602001918460208302840111600160201b8311171561031957600080fd5b91908080602002602001604051908101604052809392919081815260200183836020028082843760009201919091525092955061052c945050505050565b61038b6004803603606081101561036d57600080fd5b508035906001600160a01b03602082013581169160400135166105e2565b6040805192835260208301919091528051918290030190f35b6102326107fc565b6103b461088d565b604080516001600160a01b039092168252519081900360200190f35b6103d861089c565b604080519115158252519081900360200190f35b6103b46108ad565b6102326004803603602081101561040a57600080fd5b50356001600160a01b03166108d1565b61042261089c565b610461576040805162461bcd60e51b81526020600482018190526024820152600080516020611902833981519152604482015290519081900360640190fd5b81518351148015610473575080518351145b61047c57600080fd5b60005b83518110156105265781818151811061049457fe5b6020026020010151600160008684815181106104ac57fe5b60200260200101516001600160a01b03166001600160a01b0316815260200190815260200160002060008584815181106104e257fe5b6020908102919091018101516001600160a01b0390811683529082019290925260400160002080546001600160a01b0319169290911691909117905560010161047f565b50505050565b61053461089c565b610573576040805162461bcd60e51b81526020600482018190526024820152600080516020611902833981519152604482015290519081900360640190fd5b805182511461058157600080fd5b60005b82518110156105dd5781818151811061059957fe5b6020026020010151600260008584815181106105b157fe5b6020908102919091018101516001600160a01b0316825281019190915260400160002055600101610584565b505050565b600080600085116106245760405162461bcd60e51b815260040180806020018281038252602281526020018061187f6022913960400191505060405180910390fd5b6001600160a01b0384166106695760405162461bcd60e51b81526004018080602001828103825260218152602001806119426021913960400191505060405180910390fd5b6001600160a01b0383166106ae5760405162461bcd60e51b81526004018080602001828103825260228152602001806118376022913960400191505060405180910390fd5b7f00000000000000000000000000000000000000000000000000000000000000006001600160a01b0316846001600160a01b031614156106fa576000805160206118e283398151915293505b7f00000000000000000000000000000000000000000000000000000000000000006001600160a01b0316836001600160a01b03161415610746576000805160206118e283398151915292505b60006107528585610924565b6001600160a01b03861660009081526002602052604081205491945091925061077c57600061077e565b845b905061078a8686610b9a565b90965094506001600160a01b0385166000805160206118e283398151915214806107ca57506001600160a01b038516600080516020611922833981519152145b156107e3576107dc8787878585610c6d565b93506107f2565b6107ef87878785610e49565b93505b5050935093915050565b61080461089c565b610843576040805162461bcd60e51b81526020600482018190526024820152600080516020611902833981519152604482015290519081900360640190fd5b600080546040516001600160a01b03909116907f8be0079c531659141344cd1fd0a4f28419497f9722a3daafe3b4186f6b6457e0908390a3600080546001600160a01b0319169055565b6000546001600160a01b031690565b6000546001600160a01b0316331490565b7f000000000000000000000000000000000000000000000000000000000000000081565b6108d961089c565b610918576040805162461bcd60e51b81526020600482018190526024820152600080516020611902833981519152604482015290519081900360640190fd5b6109218161111d565b50565b6000806001600160a01b0384166000805160206118e28339815191521480159061096557506001600160a01b03841660008051602061192283398151915214155b15610a0d57836001600160a01b031663313ce5676040518163ffffffff1660e01b815260040160206040518083038186803b1580156109a357600080fd5b505afa9250505080156109c857506040513d60208110156109c357600080fd5b505160015b610a035760405162461bcd60e51b81526004018080602001828103825260298152602001806119636029913960400191505060405180910390fd5b60ff169150610a5e565b6001600160a01b0384166000805160206118e283398151915214610a595760008051602061192283398151915260005260026020526000805160206118a1833981519152549150610a5e565b601291505b6001600160a01b0383166000805160206118e283398151915214801590610a9c57506001600160a01b03831660008051602061192283398151915214155b15610b4457826001600160a01b031663313ce5676040518163ffffffff1660e01b815260040160206040518083038186803b158015610ada57600080fd5b505afa925050508015610aff57506040513d6020811015610afa57600080fd5b505160015b610b3a5760405162461bcd60e51b81526004018080602001828103825260298152602001806119636029913960400191505060405180910390fd5b60ff169050610b93565b6001600160a01b0383166000805160206118e283398151915214610b8f575060008051602061192283398151915260005260026020526000805160206118a183398151915254610b93565b5060125b9250929050565b6001600160a01b038216600090815260026020526040812054819015801590610bda57506001600160a01b03831660009081526002602052604090205415155b15610bf75750600080516020611922833981519152905080610b93565b6001600160a01b03841660009081526002602052604090205415610c2d5750600080516020611922833981519152905081610b93565b6001600160a01b03831660009081526002602052604090205415610c635750829050600080516020611922833981519152610b93565b5082905081610b93565b6001600160a01b038481166000908152600160209081526040808320878516845290915281205490911615610d0057600080610ca987876111bd565b90925090506001600160a01b038416610cd157610ccc888363ffffffff6112e916565b610ce1565b610ce1848983600086600161134b565b9250610cf783600a87900a63ffffffff61144716565b92505050610e40565b600080610d0d8787611489565b90925090506001600160a01b038216158015610d3057506001600160a01b038116155b15610d4057600092505050610e40565b6000610d4c88846111bd565b509050600080610d5c89856111bd565b90925090506001600160a01b038716610d755780610d8f565b6001600160a01b0387166000908152600260205260409020545b9050610dc582610db9610dac86600a86900a63ffffffff6112e916565b8e9063ffffffff6112e916565b9063ffffffff61144716565b95506001600160a01b0389166000805160206118e283398151915214610e0557610df986600a8a900a63ffffffff61144716565b95505050505050610e40565b60008051602061192283398151915260005260026020526000805160206118a183398151915254610df9908790600a0a63ffffffff61144716565b95945050505050565b6000806000610e588686611489565b90925090506001600160a01b038216158015610e7b57506001600160a01b038116155b15610e8b57600092505050611115565b806001600160a01b0316826001600160a01b03161415610f6957600080610eb288856111bd565b915091506000610ec288856111bd565b509050610eed81610db9610ee086600a87900a63ffffffff6112e916565b8d9063ffffffff6112e916565b95506001600160a01b0385166000805160206118e28339815191521415610f2e57610f2286600a89900a63ffffffff61144716565b95505050505050611115565b60008051602061192283398151915260005260026020526000805160206118a183398151915254610f22908790600a0a63ffffffff61144716565b6001600160a01b0382166000805160206118e2833981519152148015610fa557506001600160a01b038116600080516020611922833981519152145b15611020576000610fb687846111bd565b5090506000610fe16000805160206118e28339815191526000805160206119228339815191526111bd565b5090506000610ff088856111bd565b50905061100a81610db9610ee0868663ffffffff6112e916565b9550610f2286600a89900a63ffffffff61144716565b6001600160a01b03821660008051602061192283398151915214801561105c57506001600160a01b0381166000805160206118e2833981519152145b1561111257600080600061107089866111bd565b9150915060008061109d6000805160206119228339815191526000805160206118e28339815191526111bd565b90925090506110dd600a82900a610db9866110d16110c1868963ffffffff6116f816565b8790600a0a63ffffffff6112e916565b9063ffffffff6112e916565b94505050505060006110ef87846111bd565b50905061110681610db98b8563ffffffff6112e916565b94506111159350505050565b50505b949350505050565b6001600160a01b0381166111625760405162461bcd60e51b81526004018080602001828103825260268152602001806118596026913960400191505060405180910390fd5b600080546040516001600160a01b03808516939216917f8be0079c531659141344cd1fd0a4f28419497f9722a3daafe3b4186f6b6457e091a3600080546001600160a01b0319166001600160a01b0392909216919091179055565b600080826001600160a01b0316846001600160a01b031614156111e65750600190506000610b93565b6001600160a01b03808516600090815260016020908152604080832087851684528252918290205482516350d25bcd60e01b8152925193169283926350d25bcd926004808301939192829003018186803b15801561124357600080fd5b505afa158015611257573d6000803e3d6000fd5b505050506040513d602081101561126d57600080fd5b50516040805163313ce56760e01b815290519194506001600160a01b0383169163313ce56791600480820192602092909190829003018186803b1580156112b357600080fd5b505afa1580156112c7573d6000803e3d6000fd5b505050506040513d60208110156112dd57600080fd5b50519150509250929050565b6000826112f857506000611345565b8282028284828161130557fe5b04146113425760405162461bcd60e51b81526004018080602001828103825260218152602001806118c16021913960400191505060405180910390fd5b90505b92915050565b6001600160a01b0386166000908152600260205260408120548190861061139e576001600160a01b03881660009081526002602052604090205461139690879063ffffffff6116f816565b600a0a6113cb565b6001600160a01b0388166000908152600260205260409020546113c7908763ffffffff6116f816565b600a0a5b6001600160a01b038916600090815260026020526040902054909150861061141c5761141781610db9858161140a89600a8c900a63ffffffff6112e916565b8c9063ffffffff6112e916565b61143b565b61143b816110d185610db961140a89600a8c900a63ffffffff6112e916565b98975050505050505050565b600061134283836040518060400160405280601a81526020017f536166654d6174683a206469766973696f6e206279207a65726f00000000000081525061173a565b6001600160a01b038281166000908152600160209081526040808320600080516020611922833981519152845290915281205490918291161580159061150157506001600160a01b03838116600090815260016020908152604080832060008051602061192283398151915284529091529020541615155b1561151e5750600080516020611922833981519152905080610b93565b6001600160a01b0384811660009081526001602090815260408083206000805160206118e28339815191528452909152902054161580159061159257506001600160a01b0383811660009081526001602090815260408083206000805160206118e283398151915284529091529020541615155b156115af57506000805160206118e2833981519152905080610b93565b6001600160a01b0384811660009081526001602090815260408083206000805160206118e28339815191528452909152902054161580159061162357506001600160a01b03838116600090815260016020908152604080832060008051602061192283398151915284529091529020541615155b1561164e57506000805160206118e28339815191529050600080516020611922833981519152610b93565b6001600160a01b038481166000908152600160209081526040808320600080516020611922833981519152845290915290205416158015906116c257506001600160a01b0383811660009081526001602090815260408083206000805160206118e283398151915284529091529020541615155b156116ed575060008051602061192283398151915290506000805160206118e2833981519152610b93565b506000905080610b93565b600061134283836040518060400160405280601e81526020017f536166654d6174683a207375627472616374696f6e206f766572666c6f7700008152506117dc565b600081836117c65760405162461bcd60e51b81526004018080602001828103825283818151815260200191508051906020019080838360005b8381101561178b578181015183820152602001611773565b50505050905090810190601f1680156117b85780820380516001836020036101000a031916815260200191505b509250505060405180910390fd5b5060008385816117d257fe5b0495945050505050565b6000818484111561182e5760405162461bcd60e51b815260206004820181815283516024840152835190928392604490910191908501908083836000831561178b578181015183820152602001611773565b50505090039056fe4f7261636c6541676772656761746f723a206f7574546f6b656e206973205a65726f4f776e61626c653a206e6577206f776e657220697320746865207a65726f20616464726573734f7261636c6541676772656761746f723a20616d6f756e74496e206973205a65726f9e1b0d3a6188c3223b37ac7da3a60120d30bf27de95f233eff27b6beca24989d536166654d6174683a206d756c7469706c69636174696f6e206f766572666c6f77000000000000000000000000eeeeeeeeeeeeeeeeeeeeeeeeeeeeeeeeeeeeeeee4f776e61626c653a2063616c6c6572206973206e6f7420746865206f776e65720000000000000000000000007354c81fbcb229187480c4f497f945c6a312d5c34f7261636c6541676772656761746f723a20696e546f6b656e206973205a65726f4f7261636c6541676772656761746f723a2045524332302e646563696d616c73282920726576657274a2646970667358221220b2782ad571c6d8df344686cd0fdd89baefd1be559b8e8d8bed725d70deb9f95164736f6c634300060a00334f776e61626c653a2063616c6c6572206973206e6f7420746865206f776e6572",
  "devdoc": {
    "methods": {
      "getExpectedReturnAmount(uint256,address,address)": {
        "details": "expected return amount of outToken from amountIn of inToken"
      },
      "isOwner()": {
        "details": "Returns true if the caller is the current owner."
      },
      "owner()": {
        "details": "Returns the address of the current owner."
      },
      "renounceOwnership()": {
        "details": "Leaves the contract without owner. It will not be possible to call `onlyOwner` functions anymore. Can only be called by the current owner. NOTE: Renouncing ownership will leave the contract without an owner, thereby removing any functionality that is only available to the owner."
      },
      "transferOwnership(address)": {
        "details": "Transfers ownership of the contract to a new account (`newOwner`). Can only be called by the current owner."
      }
    }
  },
  "userdoc": {
    "methods": {}
  },
  "storageLayout": {
    "storage": [
      {
        "astId": 4,
        "contract": "contracts/OracleAggregator.sol:OracleAggregator",
        "label": "_owner",
        "offset": 0,
        "slot": "0",
        "type": "t_address"
      },
      {
        "astId": 1147,
        "contract": "contracts/OracleAggregator.sol:OracleAggregator",
        "label": "_tokenPairAddress",
        "offset": 0,
        "slot": "1",
        "type": "t_mapping(t_address,t_mapping(t_address,t_address))"
      },
      {
        "astId": 1151,
        "contract": "contracts/OracleAggregator.sol:OracleAggregator",
        "label": "_nrOfDecimalsUSD",
        "offset": 0,
        "slot": "2",
        "type": "t_mapping(t_address,t_uint256)"
      }
    ],
    "types": {
      "t_address": {
        "encoding": "inplace",
        "label": "address",
        "numberOfBytes": "20"
      },
      "t_mapping(t_address,t_address)": {
        "encoding": "mapping",
        "key": "t_address",
        "label": "mapping(address => address)",
        "numberOfBytes": "32",
        "value": "t_address"
      },
      "t_mapping(t_address,t_mapping(t_address,t_address))": {
        "encoding": "mapping",
        "key": "t_address",
        "label": "mapping(address => mapping(address => address))",
        "numberOfBytes": "32",
        "value": "t_mapping(t_address,t_address)"
      },
      "t_mapping(t_address,t_uint256)": {
        "encoding": "mapping",
        "key": "t_address",
        "label": "mapping(address => uint256)",
        "numberOfBytes": "32",
        "value": "t_uint256"
      },
      "t_uint256": {
        "encoding": "inplace",
        "label": "uint256",
        "numberOfBytes": "32"
      }
    }
  }
}