{
  "address": "0x479bb758024d768e4153031AC3F8Cd1e458Bd6c2",
  "abi": [
    {
      "inputs": [
        {
          "internalType": "address",
          "name": "_weth",
          "type": "address"
        },
        {
          "internalType": "address[]",
          "name": "_inTokens",
          "type": "address[]"
        },
        {
          "internalType": "address[]",
          "name": "_outTokens",
          "type": "address[]"
        },
        {
          "internalType": "address[]",
          "name": "_oracles",
          "type": "address[]"
        },
        {
          "internalType": "address[]",
          "name": "_stablecoins",
          "type": "address[]"
        },
        {
          "internalType": "uint256[]",
          "name": "_decimals",
          "type": "uint256[]"
        }
      ],
      "stateMutability": "nonpayable",
      "type": "constructor"
    },
    {
      "anonymous": false,
      "inputs": [
        {
          "indexed": true,
          "internalType": "address",
          "name": "previousOwner",
          "type": "address"
        },
        {
          "indexed": true,
          "internalType": "address",
          "name": "newOwner",
          "type": "address"
        }
      ],
      "name": "OwnershipTransferred",
      "type": "event"
    },
    {
      "inputs": [],
      "name": "WETH",
      "outputs": [
        {
          "internalType": "address",
          "name": "",
          "type": "address"
        }
      ],
      "stateMutability": "view",
      "type": "function"
    },
    {
      "inputs": [
        {
          "internalType": "address[]",
          "name": "_stablecoins",
          "type": "address[]"
        },
        {
          "internalType": "uint256[]",
          "name": "_decimals",
          "type": "uint256[]"
        }
      ],
      "name": "addStablecoins",
      "outputs": [],
      "stateMutability": "nonpayable",
      "type": "function"
    },
    {
      "inputs": [
        {
          "internalType": "address[]",
          "name": "_inTokens",
          "type": "address[]"
        },
        {
          "internalType": "address[]",
          "name": "_outTokens",
          "type": "address[]"
        },
        {
          "internalType": "address[]",
          "name": "_oracles",
          "type": "address[]"
        }
      ],
      "name": "addTokens",
      "outputs": [],
      "stateMutability": "nonpayable",
      "type": "function"
    },
    {
      "inputs": [
        {
          "internalType": "uint256",
          "name": "amountIn",
          "type": "uint256"
        },
        {
          "internalType": "address",
          "name": "inToken",
          "type": "address"
        },
        {
          "internalType": "address",
          "name": "outToken",
          "type": "address"
        }
      ],
      "name": "getExpectedReturnAmount",
      "outputs": [
        {
          "internalType": "uint256",
          "name": "returnAmount",
          "type": "uint256"
        },
        {
          "internalType": "uint256",
          "name": "outTokenDecimals",
          "type": "uint256"
        }
      ],
      "stateMutability": "view",
      "type": "function"
    },
    {
      "inputs": [],
      "name": "isOwner",
      "outputs": [
        {
          "internalType": "bool",
          "name": "",
          "type": "bool"
        }
      ],
      "stateMutability": "view",
      "type": "function"
    },
    {
      "inputs": [],
      "name": "owner",
      "outputs": [
        {
          "internalType": "address",
          "name": "",
          "type": "address"
        }
      ],
      "stateMutability": "view",
      "type": "function"
    },
    {
      "inputs": [],
      "name": "renounceOwnership",
      "outputs": [],
      "stateMutability": "nonpayable",
      "type": "function"
    },
    {
      "inputs": [
        {
          "internalType": "address",
          "name": "newOwner",
          "type": "address"
        }
      ],
      "name": "transferOwnership",
      "outputs": [],
      "stateMutability": "nonpayable",
      "type": "function"
    },
    {
      "inputs": [],
      "name": "version",
      "outputs": [
        {
          "internalType": "string",
          "name": "",
          "type": "string"
        }
      ],
      "stateMutability": "view",
      "type": "function"
    }
  ],
  "transactionHash": "0x359fab808df51fb8d3f2386c4fd877ceb9b37982126eb718046d46f17170ccbf",
  "args": [
    "0xc02aaa39b223fe8d0a0e5c4f27ead9083c756cc2",
    [
      "0x7354C81fbCb229187480c4f497F945C6A312d5C3",
      "0xEeeeeEeeeEeEeeEeEeEeeEEEeeeeEeeeeeeeEEeE",
      "0x7Fc66500c84A76Ad7e9c93437bFc5Ac33E2DDaE9",
      "0xADE00C28244d5CE17D72E40330B1c318cD12B7c3",
      "0x0D8775F648430679A709E98d2b0Cb6250d2887EF",
      "0xB8c77482e45F1F44dE1745F52C74426C631bDD52",
      "0x1F573D6Fb3F13d689FF844B4cE37794d79a7FF1C",
      "0x56d811088235F11C8920698a204A5010a788f4b3",
      "0xc00e94Cb662C3520282E6f5717214004A7f26888",
      "0xc00e94Cb662C3520282E6f5717214004A7f26888",
      "0xA0b73E1Ff0B80914AB6fe0444E65848C4C34450b",
      "0xEd91879919B71bB6905f23af0A68d231EcF87b14",
      "0x24D9aB51950F3d62E9144fdC2f3135DAA6Ce8D1B",
      "0xdd974D5C2e2928deA5F71b9825b8b646686BD200",
      "0xdd974D5C2e2928deA5F71b9825b8b646686BD200",
      "0x514910771AF9Ca656af840dff83E8264EcF986CA",
      "0x514910771AF9Ca656af840dff83E8264EcF986CA",
      "0xBBbbCA6A901c926F240b89EacB641d8Aec7AEafD",
      "0xBBbbCA6A901c926F240b89EacB641d8Aec7AEafD",
      "0x0F5D2fB29fb7d3CFeE444a200298f468908cC942",
      "0x9f8F72aA9304c8B593d555F12eF6589cC3A579A2",
      "0x1776e1F26f98b1A5dF9cD347953a26dd3Cb46671",
      "0x408e41876cCCDC0F92210600ef50372656052a38",
      "0x408e41876cCCDC0F92210600ef50372656052a38",
      "0x221657776846890989a759BA2973e427DfF5C9bB",
      "0xC011a73ee8576Fb46F5E1c5751cA3B9Fe0af2a6F",
      "0xC011a73ee8576Fb46F5E1c5751cA3B9Fe0af2a6F",
      "0x8CE9137d39326AD0cD6491fb5CC0CbA0e089b6A9",
      "0x1f9840a85d5aF5bf1D1762F925BDADdC4201F984",
      "0xa982B2e19e90b2D9F7948e9C1b65D119F1CE88D6",
      "0x0bc529c00C6401aEF6D220BE8C6Ea1667F6Ad93e",
      "0xE41d2489571d322189246DaFA5ebDe1F4699F498"
    ],
    [
      "0xEeeeeEeeeEeEeeEeEeEeeEEEeeeeEeeeeeeeEEeE",
      "0x7354C81fbCb229187480c4f497F945C6A312d5C3",
      "0xEeeeeEeeeEeEeeEeEeEeeEEEeeeeEeeeeeeeEEeE",
      "0x7354C81fbCb229187480c4f497F945C6A312d5C3",
      "0xEeeeeEeeeEeEeeEeEeEeeEEEeeeeEeeeeeeeEEeE",
      "0x7354C81fbCb229187480c4f497F945C6A312d5C3",
      "0xEeeeeEeeeEeEeeEeEeEeeEEEeeeeEeeeeeeeEEeE",
      "0xEeeeeEeeeEeEeeEeEeEeeEEEeeeeEeeeeeeeEEeE",
      "0xEeeeeEeeeEeEeeEeEeEeeEEEeeeeEeeeeeeeEEeE",
      "0x7354C81fbCb229187480c4f497F945C6A312d5C3",
      "0xEeeeeEeeeEeEeeEeEeEeeEEEeeeeEeeeeeeeEEeE",
      "0xEeeeeEeeeEeEeeEeEeEeeEEEeeeeEeeeeeeeEEeE",
      "0xEeeeeEeeeEeEeeEeEeEeeEEEeeeeEeeeeeeeEEeE",
      "0xEeeeeEeeeEeEeeEeEeEeeEEEeeeeEeeeeeeeEEeE",
      "0x7354C81fbCb229187480c4f497F945C6A312d5C3",
      "0xEeeeeEeeeEeEeeEeEeEeeEEEeeeeEeeeeeeeEEeE",
      "0x7354C81fbCb229187480c4f497F945C6A312d5C3",
      "0xEeeeeEeeeEeEeeEeEeEeeEEEeeeeEeeeeeeeEEeE",
      "0x7354C81fbCb229187480c4f497F945C6A312d5C3",
      "0xEeeeeEeeeEeEeeEeEeEeeEEEeeeeEeeeeeeeEEeE",
      "0xEeeeeEeeeEeEeeEeEeEeeEEEeeeeEeeeeeeeEEeE",
      "0xEeeeeEeeeEeEeeEeEeEeeEEEeeeeEeeeeeeeEEeE",
      "0xEeeeeEeeeEeEeeEeEeEeeEEEeeeeEeeeeeeeEEeE",
      "0x7354C81fbCb229187480c4f497F945C6A312d5C3",
      "0xEeeeeEeeeEeEeeEeEeEeeEEEeeeeEeeeeeeeEEeE",
      "0xEeeeeEeeeEeEeeEeEeEeeEEEeeeeEeeeeeeeEEeE",
      "0x7354C81fbCb229187480c4f497F945C6A312d5C3",
      "0x7354C81fbCb229187480c4f497F945C6A312d5C3",
      "0xEeeeeEeeeEeEeeEeEeEeeEEEeeeeEeeeeeeeEEeE",
      "0xEeeeeEeeeEeEeeEeEeEeeEEEeeeeEeeeeeeeEEeE",
      "0xEeeeeEeeeEeEeeEeEeEeeEEEeeeeEeeeeeeeEEeE",
      "0xEeeeeEeeeEeEeeEeEeEeeEEEeeeeEeeeeeeeEEeE"
    ],
    [
      "0x986b5E1e1755e3C2440e960477f25201B0a8bbD4",
      "0x5f4eC3Df9cbd43714FE2740f5E3616155c5b8419",
      "0x6Df09E975c830ECae5bd4eD9d90f3A95a4f88012",
      "0x231e764B44b2C1b7Ca171fa8021A24ed520Cde10",
      "0x0d16d4528239e9ee52fa531af613AcdB23D88c94",
      "0x14e613AC84a31f709eadbdF89C6CC390fDc9540A",
      "0xCf61d1841B178fe82C8895fe60c2EDDa08314416",
      "0x8f7C7181Ed1a2BA41cfC3f5d064eF91b67daef66",
      "0x1B39Ee86Ec5979ba5C322b826B3ECb8C79991699",
      "0xdbd020CAeF83eFd542f4De03e3cF0C28A4428bd5",
      "0xcA696a9Eb93b81ADFE6435759A29aB4cf2991A96",
      "0xD010e899f7ab723AC93f825cDC5Aa057669557c2",
      "0x24D9aB51950F3d62E9144fdC2f3135DAA6Ce8D1B",
      "0x656c0544eF4C98A6a98491833A89204Abb045d6b",
      "0xf8fF43E991A81e6eC886a3D281A2C6cC19aE70Fc",
      "0xDC530D9457755926550b59e8ECcdaE7624181557",
      "0x2c1d072e956AFFC0D435Cb7AC38EF18d24d9127c",
      "0x160AC928A16C93eD4895C2De6f81ECcE9a7eB7b4",
      "0x231e764B44b2C1b7Ca171fa8021A24ed520Cde10",
      "0x82A44D92D6c329826dc557c5E1Be6ebeC5D5FeB9",
      "0x24551a8Fb2A7211A25a17B1481f043A8a8adC7f2",
      "0x9cB2A01A7E64992d32A34db7cEea4c919C391f6A",
      "0x3147D7203354Dc06D9fd350c7a2437bcA92387a4",
      "0x0f59666EDE214281e956cb3b2D0d69415AfF4A01",
      "0xD4CE430C3b67b3E2F7026D86E7128588629e2455",
      "0x79291A9d692Df95334B1a0B3B4AE6bC606782f8c",
      "0xDC3EA94CD0AC27d9A86C180091e7f78C683d3699",
      "0xFb0CfD6c19e25DB4a08D8a204a387cEa48Cc138f",
      "0xD6aA3D25116d8dA79Ea0246c4826EB951872e02e",
      "0xcEBD2026d3C99F2a7CE028acf372C154aB4638a9",
      "0x7c5d4F8345e66f68099581Db340cd65B078C41f4",
      "0x2Da4983a622a8498bb1a21FaE9D8F6C664939962"
    ],
    [
      "0x7354C81fbCb229187480c4f497F945C6A312d5C3",
      "0xa0b86991c6218b36c1d19d4a2e9eb0ce3606eb48",
      "0xdac17f958d2ee523a2206206994597c13d831ec7",
      "0x6B175474E89094C44Da98b954EedeAC495271d0F",
      "0x4Fabb145d64652a948d72533023f6E7A623C7C53",
      "0x57Ab1ec28D129707052df4dF418D58a2D46d5f51",
      "0x0000000000085d4780B73119b644AE5ecd22b376"
    ],
    [
      8,
      6,
      6,
      18,
      18,
      18,
      18
    ]
  ],
  "solcInputHash": "e0f4104eb5110731abcd422eda457af0",
  "bytecode": "0x60a06040523480156200001157600080fd5b506040516200212738038062002127833981810160405260c08110156200003757600080fd5b8151602083018051604051929492938301929190846401000000008211156200005f57600080fd5b9083019060208201858111156200007557600080fd5b82518660208202830111640100000000821117156200009357600080fd5b82525081516020918201928201910280838360005b83811015620000c2578181015183820152602001620000a8565b5050505090500160405260200180516040519392919084640100000000821115620000ec57600080fd5b9083019060208201858111156200010257600080fd5b82518660208202830111640100000000821117156200012057600080fd5b82525081516020918201928201910280838360005b838110156200014f57818101518382015260200162000135565b50505050905001604052602001805160405193929190846401000000008211156200017957600080fd5b9083019060208201858111156200018f57600080fd5b8251866020820283011164010000000082111715620001ad57600080fd5b82525081516020918201928201910280838360005b83811015620001dc578181015183820152602001620001c2565b50505050905001604052602001805160405193929190846401000000008211156200020657600080fd5b9083019060208201858111156200021c57600080fd5b82518660208202830111640100000000821117156200023a57600080fd5b82525081516020918201928201910280838360005b83811015620002695781810151838201526020016200024f565b50505050905001604052602001805160405193929190846401000000008211156200029357600080fd5b908301906020820185811115620002a957600080fd5b8251866020820283011164010000000082111715620002c757600080fd5b82525081516020918201928201910280838360005b83811015620002f6578181015183820152602001620002dc565b50505050919091016040819052600080546001600160a01b03191633178082556001600160a01b0316955093507f8be0079c531659141344cd1fd0a4f28419497f9722a3daafe3b4186f6b6457e09250839150a36001600160601b0319606087901b16608052620003728585856001600160e01b036200047516565b6200038782826001600160e01b036200059b16565b737354c81fbcb229187480c4f497f945c6a312d5c36000527fde3e59ea0eeb6a65f16dd826b7bdfb53723c09ad80c81d458bbf2e138d9185236020527f71be31c8c9ea1990ff1b25e32cf5546b7f5958f3992ff0a4dbb969bf1facc864546001600160a01b0316620003f857600080fd5b73eeeeeeeeeeeeeeeeeeeeeeeeeeeeeeeeeeeeeeee6000527fd35485ff1dcb18f34e1a6cc1f7ccf16763a6d6285a9dc61fc9b9ec9862019d0b6020527f870144fd8380c69772f87ba99aa23849f47f359a7471f50a19407c3e1bd8ace2546001600160a01b03166200046957600080fd5b50505050505062000674565b620004886001600160e01b036200066316565b620004c9576040805162461bcd60e51b8152602060048201819052602482015260008051602062002107833981519152604482015290519081900360640190fd5b81518351148015620004dc575080518351145b620004e657600080fd5b60005b835181101562000595578181815181106200050057fe5b6020026020010151600160008684815181106200051957fe5b60200260200101516001600160a01b03166001600160a01b0316815260200190815260200160002060008584815181106200055057fe5b6020908102919091018101516001600160a01b0390811683529082019290925260400160002080546001600160a01b03191692909116919091179055600101620004e9565b50505050565b620005ae6001600160e01b036200066316565b620005ef576040805162461bcd60e51b8152602060048201819052602482015260008051602062002107833981519152604482015290519081900360640190fd5b8051825114620005fe57600080fd5b60005b82518110156200065e578181815181106200061857fe5b6020026020010151600260008584815181106200063157fe5b6020908102919091018101516001600160a01b031682528101919091526040016000205560010162000601565b505050565b6000546001600160a01b0316331490565b60805160601c611a6b6200069c60003980610738528061078452806109595250611a6b6000f3fe608060405234801561001057600080fd5b50600436106100935760003560e01c8063715018a611610066578063715018a61461042c5780638da5cb5b146104345780638f32d59b14610458578063ad5c464814610474578063f2fde38b1461047c57610093565b80631ef03378146100985780632711f37f1461023f5780633c772b6c1461036257806354fd4d50146103af575b600080fd5b61023d600480360360608110156100ae57600080fd5b810190602081018135600160201b8111156100c857600080fd5b8201836020820111156100da57600080fd5b803590602001918460208302840111600160201b831117156100fb57600080fd5b9190808060200260200160405190810160405280939291908181526020018383602002808284376000920191909152509295949360208101935035915050600160201b81111561014a57600080fd5b82018360208201111561015c57600080fd5b803590602001918460208302840111600160201b8311171561017d57600080fd5b9190808060200260200160405190810160405280939291908181526020018383602002808284376000920191909152509295949360208101935035915050600160201b8111156101cc57600080fd5b8201836020820111156101de57600080fd5b803590602001918460208302840111600160201b831117156101ff57600080fd5b9190808060200260200160405190810160405280939291908181526020018383602002808284376000920191909152509295506104a2945050505050565b005b61023d6004803603604081101561025557600080fd5b810190602081018135600160201b81111561026f57600080fd5b82018360208201111561028157600080fd5b803590602001918460208302840111600160201b831117156102a257600080fd5b9190808060200260200160405190810160405280939291908181526020018383602002808284376000920191909152509295949360208101935035915050600160201b8111156102f157600080fd5b82018360208201111561030357600080fd5b803590602001918460208302840111600160201b8311171561032457600080fd5b9190808060200260200160405190810160405280939291908181526020018383602002808284376000920191909152509295506105b4945050505050565b6103966004803603606081101561037857600080fd5b508035906001600160a01b036020820135811691604001351661066a565b6040805192835260208301919091528051918290030190f35b6103b7610884565b6040805160208082528351818301528351919283929083019185019080838360005b838110156103f15781810151838201526020016103d9565b50505050905090810190601f16801561041e5780820380516001836020036101000a031916815260200191505b509250505060405180910390f35b61023d6108a6565b61043c610937565b604080516001600160a01b039092168252519081900360200190f35b610460610946565b604080519115158252519081900360200190f35b61043c610957565b61023d6004803603602081101561049257600080fd5b50356001600160a01b031661097b565b6104aa610946565b6104e9576040805162461bcd60e51b815260206004820181905260248201526000805160206119ac833981519152604482015290519081900360640190fd5b815183511480156104fb575080518351145b61050457600080fd5b60005b83518110156105ae5781818151811061051c57fe5b60200260200101516001600086848151811061053457fe5b60200260200101516001600160a01b03166001600160a01b03168152602001908152602001600020600085848151811061056a57fe5b6020908102919091018101516001600160a01b0390811683529082019290925260400160002080546001600160a01b03191692909116919091179055600101610507565b50505050565b6105bc610946565b6105fb576040805162461bcd60e51b815260206004820181905260248201526000805160206119ac833981519152604482015290519081900360640190fd5b805182511461060957600080fd5b60005b82518110156106655781818151811061062157fe5b60200260200101516002600085848151811061063957fe5b6020908102919091018101516001600160a01b031682528101919091526040016000205560010161060c565b505050565b600080600085116106ac5760405162461bcd60e51b81526004018080602001828103825260228152602001806119296022913960400191505060405180910390fd5b6001600160a01b0384166106f15760405162461bcd60e51b81526004018080602001828103825260218152602001806119ec6021913960400191505060405180910390fd5b6001600160a01b0383166107365760405162461bcd60e51b81526004018080602001828103825260228152602001806118e16022913960400191505060405180910390fd5b7f00000000000000000000000000000000000000000000000000000000000000006001600160a01b0316846001600160a01b031614156107825760008051602061198c83398151915293505b7f00000000000000000000000000000000000000000000000000000000000000006001600160a01b0316836001600160a01b031614156107ce5760008051602061198c83398151915292505b60006107da85856109ce565b6001600160a01b038616600090815260026020526040812054919450919250610804576000610806565b845b90506108128686610c44565b90965094506001600160a01b03851660008051602061198c833981519152148061085257506001600160a01b0385166000805160206119cc833981519152145b1561086b576108648787878585610d17565b935061087a565b61087787878785610ef3565b93505b5050935093915050565b60405180604001604052806006815260200165076312e302e360d41b81525081565b6108ae610946565b6108ed576040805162461bcd60e51b815260206004820181905260248201526000805160206119ac833981519152604482015290519081900360640190fd5b600080546040516001600160a01b03909116907f8be0079c531659141344cd1fd0a4f28419497f9722a3daafe3b4186f6b6457e0908390a3600080546001600160a01b0319169055565b6000546001600160a01b031690565b6000546001600160a01b0316331490565b7f000000000000000000000000000000000000000000000000000000000000000081565b610983610946565b6109c2576040805162461bcd60e51b815260206004820181905260248201526000805160206119ac833981519152604482015290519081900360640190fd5b6109cb816111c7565b50565b6000806001600160a01b03841660008051602061198c83398151915214801590610a0f57506001600160a01b0384166000805160206119cc83398151915214155b15610ab757836001600160a01b031663313ce5676040518163ffffffff1660e01b815260040160206040518083038186803b158015610a4d57600080fd5b505afa925050508015610a7257506040513d6020811015610a6d57600080fd5b505160015b610aad5760405162461bcd60e51b8152600401808060200182810382526029815260200180611a0d6029913960400191505060405180910390fd5b60ff169150610b08565b6001600160a01b03841660008051602061198c83398151915214610b03576000805160206119cc833981519152600052600260205260008051602061194b833981519152549150610b08565b601291505b6001600160a01b03831660008051602061198c83398151915214801590610b4657506001600160a01b0383166000805160206119cc83398151915214155b15610bee57826001600160a01b031663313ce5676040518163ffffffff1660e01b815260040160206040518083038186803b158015610b8457600080fd5b505afa925050508015610ba957506040513d6020811015610ba457600080fd5b505160015b610be45760405162461bcd60e51b8152600401808060200182810382526029815260200180611a0d6029913960400191505060405180910390fd5b60ff169050610c3d565b6001600160a01b03831660008051602061198c83398151915214610c3957506000805160206119cc833981519152600052600260205260008051602061194b83398151915254610c3d565b5060125b9250929050565b6001600160a01b038216600090815260026020526040812054819015801590610c8457506001600160a01b03831660009081526002602052604090205415155b15610ca157506000805160206119cc833981519152905080610c3d565b6001600160a01b03841660009081526002602052604090205415610cd757506000805160206119cc833981519152905081610c3d565b6001600160a01b03831660009081526002602052604090205415610d0d57508290506000805160206119cc833981519152610c3d565b5082905081610c3d565b6001600160a01b038481166000908152600160209081526040808320878516845290915281205490911615610daa57600080610d538787611267565b90925090506001600160a01b038416610d7b57610d76888363ffffffff61139316565b610d8b565b610d8b84898360008660016113f5565b9250610da183600a87900a63ffffffff6114f116565b92505050610eea565b600080610db78787611533565b90925090506001600160a01b038216158015610dda57506001600160a01b038116155b15610dea57600092505050610eea565b6000610df68884611267565b509050600080610e068985611267565b90925090506001600160a01b038716610e1f5780610e39565b6001600160a01b0387166000908152600260205260409020545b9050610e6f82610e63610e5686600a86900a63ffffffff61139316565b8e9063ffffffff61139316565b9063ffffffff6114f116565b95506001600160a01b03891660008051602061198c83398151915214610eaf57610ea386600a8a900a63ffffffff6114f116565b95505050505050610eea565b6000805160206119cc833981519152600052600260205260008051602061194b83398151915254610ea3908790600a0a63ffffffff6114f116565b95945050505050565b6000806000610f028686611533565b90925090506001600160a01b038216158015610f2557506001600160a01b038116155b15610f35576000925050506111bf565b806001600160a01b0316826001600160a01b0316141561101357600080610f5c8885611267565b915091506000610f6c8885611267565b509050610f9781610e63610f8a86600a87900a63ffffffff61139316565b8d9063ffffffff61139316565b95506001600160a01b03851660008051602061198c8339815191521415610fd857610fcc86600a89900a63ffffffff6114f116565b955050505050506111bf565b6000805160206119cc833981519152600052600260205260008051602061194b83398151915254610fcc908790600a0a63ffffffff6114f116565b6001600160a01b03821660008051602061198c83398151915214801561104f57506001600160a01b0381166000805160206119cc833981519152145b156110ca5760006110608784611267565b509050600061108b60008051602061198c8339815191526000805160206119cc833981519152611267565b509050600061109a8885611267565b5090506110b481610e63610f8a868663ffffffff61139316565b9550610fcc86600a89900a63ffffffff6114f116565b6001600160a01b0382166000805160206119cc83398151915214801561110657506001600160a01b03811660008051602061198c833981519152145b156111bc57600080600061111a8986611267565b915091506000806111476000805160206119cc83398151915260008051602061198c833981519152611267565b9092509050611187600a82900a610e638661117b61116b868963ffffffff6117a216565b8790600a0a63ffffffff61139316565b9063ffffffff61139316565b94505050505060006111998784611267565b5090506111b081610e638b8563ffffffff61139316565b94506111bf9350505050565b50505b949350505050565b6001600160a01b03811661120c5760405162461bcd60e51b81526004018080602001828103825260268152602001806119036026913960400191505060405180910390fd5b600080546040516001600160a01b03808516939216917f8be0079c531659141344cd1fd0a4f28419497f9722a3daafe3b4186f6b6457e091a3600080546001600160a01b0319166001600160a01b0392909216919091179055565b600080826001600160a01b0316846001600160a01b031614156112905750600190506000610c3d565b6001600160a01b03808516600090815260016020908152604080832087851684528252918290205482516350d25bcd60e01b8152925193169283926350d25bcd926004808301939192829003018186803b1580156112ed57600080fd5b505afa158015611301573d6000803e3d6000fd5b505050506040513d602081101561131757600080fd5b50516040805163313ce56760e01b815290519194506001600160a01b0383169163313ce56791600480820192602092909190829003018186803b15801561135d57600080fd5b505afa158015611371573d6000803e3d6000fd5b505050506040513d602081101561138757600080fd5b50519150509250929050565b6000826113a2575060006113ef565b828202828482816113af57fe5b04146113ec5760405162461bcd60e51b815260040180806020018281038252602181526020018061196b6021913960400191505060405180910390fd5b90505b92915050565b6001600160a01b03861660009081526002602052604081205481908610611448576001600160a01b03881660009081526002602052604090205461144090879063ffffffff6117a216565b600a0a611475565b6001600160a01b038816600090815260026020526040902054611471908763ffffffff6117a216565b600a0a5b6001600160a01b03891660009081526002602052604090205490915086106114c6576114c181610e6385816114b489600a8c900a63ffffffff61139316565b8c9063ffffffff61139316565b6114e5565b6114e58161117b85610e636114b489600a8c900a63ffffffff61139316565b98975050505050505050565b60006113ec83836040518060400160405280601a81526020017f536166654d6174683a206469766973696f6e206279207a65726f0000000000008152506117e4565b6001600160a01b0382811660009081526001602090815260408083206000805160206119cc83398151915284529091528120549091829116158015906115ab57506001600160a01b0383811660009081526001602090815260408083206000805160206119cc83398151915284529091529020541615155b156115c857506000805160206119cc833981519152905080610c3d565b6001600160a01b03848116600090815260016020908152604080832060008051602061198c8339815191528452909152902054161580159061163c57506001600160a01b03838116600090815260016020908152604080832060008051602061198c83398151915284529091529020541615155b15611659575060008051602061198c833981519152905080610c3d565b6001600160a01b03848116600090815260016020908152604080832060008051602061198c833981519152845290915290205416158015906116cd57506001600160a01b0383811660009081526001602090815260408083206000805160206119cc83398151915284529091529020541615155b156116f8575060008051602061198c83398151915290506000805160206119cc833981519152610c3d565b6001600160a01b0384811660009081526001602090815260408083206000805160206119cc8339815191528452909152902054161580159061176c57506001600160a01b03838116600090815260016020908152604080832060008051602061198c83398151915284529091529020541615155b1561179757506000805160206119cc833981519152905060008051602061198c833981519152610c3d565b506000905080610c3d565b60006113ec83836040518060400160405280601e81526020017f536166654d6174683a207375627472616374696f6e206f766572666c6f770000815250611886565b600081836118705760405162461bcd60e51b81526004018080602001828103825283818151815260200191508051906020019080838360005b8381101561183557818101518382015260200161181d565b50505050905090810190601f1680156118625780820380516001836020036101000a031916815260200191505b509250505060405180910390fd5b50600083858161187c57fe5b0495945050505050565b600081848411156118d85760405162461bcd60e51b815260206004820181815283516024840152835190928392604490910191908501908083836000831561183557818101518382015260200161181d565b50505090039056fe4f7261636c6541676772656761746f723a206f7574546f6b656e206973205a65726f4f776e61626c653a206e6577206f776e657220697320746865207a65726f20616464726573734f7261636c6541676772656761746f723a20616d6f756e74496e206973205a65726f9e1b0d3a6188c3223b37ac7da3a60120d30bf27de95f233eff27b6beca24989d536166654d6174683a206d756c7469706c69636174696f6e206f766572666c6f77000000000000000000000000eeeeeeeeeeeeeeeeeeeeeeeeeeeeeeeeeeeeeeee4f776e61626c653a2063616c6c6572206973206e6f7420746865206f776e65720000000000000000000000007354c81fbcb229187480c4f497f945c6a312d5c34f7261636c6541676772656761746f723a20696e546f6b656e206973205a65726f4f7261636c6541676772656761746f723a2045524332302e646563696d616c73282920726576657274a2646970667358221220d136a2ddf910ab52d2ca8462d73aea8c1f40a53cb2d88ebbc8fd91e6a56e331864736f6c634300060a00334f776e61626c653a2063616c6c6572206973206e6f7420746865206f776e6572",
  "devdoc": {
    "methods": {
      "getExpectedReturnAmount(uint256,address,address)": {
        "details": "expected return amount of outToken from amountIn of inToken"
      },
      "isOwner()": {
        "details": "Returns true if the caller is the current owner."
      },
      "owner()": {
        "details": "Returns the address of the current owner."
      },
      "renounceOwnership()": {
        "details": "Leaves the contract without owner. It will not be possible to call `onlyOwner` functions anymore. Can only be called by the current owner. NOTE: Renouncing ownership will leave the contract without an owner, thereby removing any functionality that is only available to the owner."
      },
      "transferOwnership(address)": {
        "details": "Transfers ownership of the contract to a new account (`newOwner`). Can only be called by the current owner."
      }
    }
  },
  "userdoc": {
    "methods": {}
  },
  "storageLayout": {
    "storage": [
      {
        "astId": 4,
        "contract": "contracts/OracleAggregator.sol:OracleAggregator",
        "label": "_owner",
        "offset": 0,
        "slot": "0",
        "type": "t_address"
      },
      {
        "astId": 1150,
        "contract": "contracts/OracleAggregator.sol:OracleAggregator",
        "label": "_tokenPairAddress",
        "offset": 0,
        "slot": "1",
        "type": "t_mapping(t_address,t_mapping(t_address,t_address))"
      },
      {
        "astId": 1154,
        "contract": "contracts/OracleAggregator.sol:OracleAggregator",
        "label": "_nrOfDecimalsUSD",
        "offset": 0,
        "slot": "2",
        "type": "t_mapping(t_address,t_uint256)"
      }
    ],
    "types": {
      "t_address": {
        "encoding": "inplace",
        "label": "address",
        "numberOfBytes": "20"
      },
      "t_mapping(t_address,t_address)": {
        "encoding": "mapping",
        "key": "t_address",
        "label": "mapping(address => address)",
        "numberOfBytes": "32",
        "value": "t_address"
      },
      "t_mapping(t_address,t_mapping(t_address,t_address))": {
        "encoding": "mapping",
        "key": "t_address",
        "label": "mapping(address => mapping(address => address))",
        "numberOfBytes": "32",
        "value": "t_mapping(t_address,t_address)"
      },
      "t_mapping(t_address,t_uint256)": {
        "encoding": "mapping",
        "key": "t_address",
        "label": "mapping(address => uint256)",
        "numberOfBytes": "32",
        "value": "t_uint256"
      },
      "t_uint256": {
        "encoding": "inplace",
        "label": "uint256",
        "numberOfBytes": "32"
      }
    }
  }
}